:020000040000FA
:06000000CDEF00F012003C
:020006000000F8
:08000800D9CFE6FFE1CFD9FFDB
:10001000D950FB0FE96EFF0EDA20EA6EEFCF00F049
:10002000EE06000EEFCF01F0EE5AEFCF02F0EE5ADF
:10003000EFCF03F0EF5A005001100210031001E05F
:10004000E7D7E552E7CFD9FF1200D9CFE6FFE1CFDE
:10005000D9FF020EE126926A936A896A8A6ADE6A89
:10006000DD6ADECF00F0DDCF01F0D890015004E66C
:10007000090E005C000E015826E2010EDF5206E078
:10008000DFCFF3FFE846FE0BF306FCE1896E010EBD
:10009000DF5206E0DFCFF3FFE846FE0BF306FCE19C
:1000A0008A6E500EE66EC30EE66EE66AE66AACDF56
:1000B000E552E552E552E552896A8A6ADF2A010E65
:1000C00001E3DB2ACED7CBD7020EE15C02E2E16A84
:0C00D000E552E16EE552E7CFD9FF1200C7
:0400DC00060EF66EA8
:1000E000000EF76E000EF86E0F010900F550056F57
:1000F0000900F550066F03E1056701D03DD0090006
:10010000F550006F0900F550016F0900F550026FBE
:1001100009000900F550E96E0900F550EA6E090082
:1001200009000900F550036F0900F550046F09003C
:100130000900F6CF07FFF7CF08FFF8CF09FF00CF80
:10014000F6FF01CFF7FF02CFF8FF0F01035302E1E3
:10015000045307E00900F550EE6E0307F8E20407C8
:10016000F9D707CFF6FF08CFF7FF09CFF8FF0F0148
:0A0170000507000E065BBFD7120062
:06017A00600EF36E00EEC2
:1001800000F00F0E01D81200EA6002D0EE6AFCD730
:0A019000F350E9601200EE6AFCD79C
:06019A001EEE00F02EEE47
:1001A00000F0F86A059C6EEC00F0DBEC00F025EC4A
:0601B00000F0FBD7120075
:0201B600120035
:020000040030CA
:0100010002FC
:010003001EDE
:00000001FF
