:020000040000FA
:0600000037EF01F01200D1
:0A0006000100A80200000A0F00002C
:040010000A000000E2
:0C001400800ED56E5E0ED76EA00ED66E6C
:10002000D58E1200D750126E12C013F0126AD6503D
:1000300000011210106E13C011F010C0F3FF11C0B8
:10004000F4FF00D012005E0ED76EA00ED66E120026
:10005000D9CFE6FFE1CFD9FF040EE126DE6ADD6AE3
:10006000DECF10F0DDCF11F0FD0EDBCF12F0FE0E73
:10007000DBCF13F01250105C135011581BE2020E2C
:10008000DB6A030EDB6A020EDBCF10F0030EDBCF60
:1000900011F0F40E105C010E115807E20000020E80
:1000A000DB2A030E01E3DB2AEED7DF2A010E01E390
:1000B000DB2AD6D7040EE15C02E2E16AE552E16E8A
:1000C000E552E7CFD9FF1200D9CFE6FFE1CFD9FF44
:1000D0000A0E106E10C00CF0FE0EDBCF07F045ECE0
:1000E00001F00750EA6A0A0FE96E0F0EEA22EF509C
:1000F0008A6E010E8C6E050EE66EE66AA9DFE55289
:10010000E5520A0E106E10C00CF0FE0EDBCF07F0A9
:1001100045EC01F00350EA6A0A0FE96E0F0EEA227D
:10012000EF508A6E020E8C6E050EE66EE66A90DF68
:10013000E552E552E552E7CFD9FF1200D9CFE6FFED
:10014000E1CFD9FF030EE126DF6A936A956A8A6AD6
:100150008C6A60DF67DFDE52F3CFDEFFF4CFDDFFB6
:10016000DD52010EDBCF10F0020EDBCF11F0126A70
:10017000D8901250000A06E6FF0E105CFF0E1158D0
:10018000000E125806E3DF2A640EDF5C01E3DF6A2B
:100190005ADFDFCFE6FF98DFE552DCD7030EE15CE4
:1001A00002E2E16AE552E16EE552E7CFD9FF1200C3
:1001B000060EF66E000EF76E000EF86E0F010900C7
:1001C000F550056F0900F550066F03E1056701D092
:1001D0003DD00900F550006F0900F550016F09008E
:1001E000F550026F09000900F550E96E0900F5505D
:1001F000EA6E090009000900F550036F0900F55087
:10020000046F09000900F6CF07FFF7CF08FFF8CF0A
:1002100009FF00CFF6FF01CFF7FF02CFF8FF0F0174
:10022000035302E1045307E00900F550EE6E0307A3
:10023000F8E20407F9D707CFF6FF08CFF7FF09CF99
:0E024000F8FF0F010507000E065BBFD7120086
:02024E00600E40
:10025000F36E00EE00F00F0E01D81200EA6002D03B
:0E026000EE6AFCD7F350E9601200EE6AFCD79C
:02026E001EEE82
:1002700000F02EEE00F0F86A0F9CD8EC00F053EC82
:0A02800001F09EEC00F0FBD7120025
:06028A00036A080EE76E96
:10029000D890073603360C50035C02E3036E072A3E
:0602A000E72EF7D7120063
:0202A600120044
:0802A8003F065B4F666D7D0708
:0202B0007F6F5E
:020000040030CA
:0100010002FC
:010003001EDE
:00000001FF
