:020000040000FA
:06000000C4EF01F0120044
:020006000000F8
:08000800D9CFE6FFE1CFD9FFDB
:10001000050EE126FD0EDBCF10F0FE0EDBCF11F05A
:100020000A0E0B6E0C6A10C006F011C007F08EECC1
:1000300001F002C010F003C011F01050DF6EFD0E91
:10004000DBCF10F0FE0EDBCF11F00A0E0B6E0C6A48
:1000500010C006F011C007F08EEC01F006C010F0E1
:1000600007C011F00A0E0B6E0C6A10C006F011C02A
:1000700007F08EEC01F002C010F003C011F0010E89
:1000800010C0DBFFFD0EDBCF10F0FE0EDBCF11F05A
:10009000640E0B6E0C6A10C006F011C007F08EECF7
:1000A00001F006C010F007C011F00A0E0B6E0C6ACA
:1000B00010C006F011C007F08EEC01F002C010F085
:1000C00003C011F0020E10C0DBFFFD0EDBCF10F0FD
:1000D000FE0EDBCF11F0E80E0B6E030E0C6E10C09F
:1000E00006F011C007F08EEC01F006C010F007C05A
:1000F00011F00A0E0B6E0C6A10C006F011C007F06A
:100100008EEC01F002C010F003C011F0030E10C01D
:10011000DBFF040EDB6ADBCF10F0E76E1018E8AEF1
:1001200002D0E73402D0E750105C4AE2DF50F76AB1
:10013000A40FF66E030EF7220800F5508A6EFE0E2D
:100140008B6E030EE66EA4EC01F0E5528B68010E97
:10015000DB50F76AA40FF66E030EF7220800F55085
:100160008A6EFD0E8B6E030EE66EA4EC01F0E55276
:100170008B68020EDB50F76AA40FF66E030EF722AF
:100180000800F5508A6EFB0E8B6E030EE66EA4EC33
:1001900001F0E5528B68030EDB50F76AA40FF66E90
:1001A000030EF7220800F5508A6EF70E8B6E030ED1
:1001B000E66EA4EC01F0E5528B68040EDB2AABD7A7
:1001C000050EE15C02E2E16AE552E16EE552E7CF3D
:1001D000D9FF1200D9CFE6FFE1CFD9FF020EE12609
:1001E000DE6ADD6A936AF00E946E8A6A8B68DECFEF
:1001F000E6FFDDCFE6FF08DFE552E55282B819D011
:10020000140EE66EA4EC01F0E55282B812D0DF2A9B
:10021000010E01E3DB2AD9CFE9FFDACFEAFF0F0EA7
:10022000D880EE54270EED5402E2DE6ADD6A82A821
:10023000FED782BA19D0140EE66EA4EC01F0E55296
:1002400082BA12D0D9CFE9FFDACFEAFFEE50ED1033
:1002500005E10F0EDE6E270EDD6E04D0DF06010E07
:1002600001E2DB0682AAFED7C2D7020EE15C02E2FF
:0E027000E16AE552E16EE552E7CFD9FF1200D8
:02027E00060E6A
:10028000F66E000EF76E000EF86E0F010900F550C5
:10029000056F0900F550066F03E1056701D03DD0F9
:1002A0000900F550006F0900F550016F0900F55085
:1002B000026F09000900F550E96E0900F550EA6E79
:1002C000090009000900F550036F0900F550046F9B
:1002D00009000900F6CF07FFF7CF08FFF8CF09FFA5
:1002E00000CFF6FF01CFF7FF02CFF8FF0F01035356
:1002F00002E1045307E00900F550EE6E0307F8E24F
:100300000407F9D707CFF6FF08CFF7FF09CFF8FFAB
:0C0310000F010507000E065BBFD71200AE
:04031C00036A026A04
:10032000100EE76ED89006360736023603360B50AD
:10033000025C0C50035805E30B50025E0C50035A4C
:08034000062AE72EF0D7120097
:08034800FF0EE350126E480E97
:1003500001D04C0EE76EE72EFED7E76AE72EFED7F8
:08036000122EF7D70000120075
:08036800600EF36E00EE00F0E0
:100370000F0E01D81200EA6002D0EE6AFCD7F350EB
:08038000E9601200EE6AFCD7EF
:080388001EEE00F02EEE00F065
:10039000F86A0F9C3FEC01F0D7EC01F0EAEC00F0BA
:0403A000FBD7120075
:0A03A4003F065B4F666D7D077F6F1B
:0203AE0012003B
:020000040030CA
:0100010002FC
:010003001EDE
:010006008178
:00000001FF
